{
    "_format": "hh-sol-artifact-1",
    "contractName": "PaymentReceiver",
    "sourceName": "contracts/paymentReceiver.sol",
    "abi": [
        {
            "anonymous": false,
            "inputs": [
                {
                    "indexed": true,
                    "internalType": "address",
                    "name": "from",
                    "type": "address"
                },
                {
                    "indexed": false,
                    "internalType": "uint256",
                    "name": "amount",
                    "type": "uint256"
                },
                {
                    "indexed": false,
                    "internalType": "uint256",
                    "name": "chainId",
                    "type": "uint256"
                },
                {
                    "indexed": false,
                    "internalType": "uint256",
                    "name": "timestamp",
                    "type": "uint256"
                }
            ],
            "name": "PaymentReceived",
            "type": "event"
        },
        {
            "inputs": [],
            "name": "receivePayment",
            "outputs": [],
            "stateMutability": "payable",
            "type": "function"
        }
    ],
    "bytecode": "0x6080604052348015600f57600080fd5b5060a280601d6000396000f3fe608060405260043610601c5760003560e01c8063835c19f3146021575b600080fd5b60276029565b005b604080513481524660208201524281830152905133917f750e6bbedd4312ada35caa75e07fc0b85f1a6fc9c675e6962aef846918711097919081900360600190a256fea264697066735822122001f5260c3fe78fbcc3083c3822ae7a7027798af501fc6a8a19b48a2cb92cdbd964736f6c634300081b0033",
    "linkReferences": {},
    "deployedLinkReferences": {}
}